:020000020000FC
:0200000004C03A
:100008003BC058E05EBF5FE55DBF51E057BB44278A
:1000180057EF51BB50E058BB55BB00C00E944F0082
:100028000E94590000C050E85BBF54E055BF789467
:1000380000C004D0A2D08AD0E9D0FBCF51E058BB91
:1000480058E25A95F1F750E058BB30E03030F1F300
:100058005FB7F8940CB51DB54DBD4CBD5FBF992772
:10006800BB27073508F002C0103029F007551040AB
:100078008894B395F6CF0895BFB65F93213021F4E5
:100088004EBD31E020E004C05EB552605EBD21E0A7
:100098005F91BFBE1895552751B950E750B954E044
:1000A80056BF5FEF53B9089512C0772760E035D087
:1000B80078D0A3E03FD075D0A3E03CD07DD0A2E0BB
:1000C80039D07AD060E229D077D017D0089554EA91
:1000D80056BF56B757FFFDCF5EE453B954E856BF35
:1000E80056B757FFFDCFA3B954E856BF56B757FFC9
:1000F800FDCF51B154E956BF08956CE00E949100BC
:100108000E94F70061E00E9491000E94EC0066E006
:100118000E9491000E94F7000895A62FA07F0E94D8
:100128009E00A62FAA0FAA0FAA0FAA0FA07F0E94AF
:100138009E00089584E0703009F081608860A82BE3
:100148000E945800AB7F0E945800089570E00E94FA
:100158008100E063D063C06371E06E2F0E9491005C
:100168000E9404016D2F0E9491000E9404016C2FCF
:100178000E9491000E9404010895EE27DD27CC27F4
:1001880000C0B43628F000C0B4568894E395F9CF7F
:10019800BA3028F000C0BA508894D395F9CFCB2F45
:1001A80008952F933F932EE43BEE3A95F1F72A9565
:1001B800E1F72F913F9108952F933F9324E03DE17C
:1001C8003A95F1F72A95E1F700002F913F910895AC
:1001D8002F933F9328E13FE53A95F1F72A95E1F708
:1001E8002F913F9108952F9328EC2A95F1F700005D
:1001F8002F9108952F9324E02A95F1F72F910895D0
:100208002F9324E12A95F1F72F9108952F933F9387
:100218004F932DE03DE248ED4A95F1F73A95E1F725
:0E0228002A95D1F700002F913F914F91089534
:00000001FF
