:020000020000FC
:0200000004C03A
:1000080043C058E05EBF5FE55DBF51E054BB5FEFA2
:1000180057BB442757EF51BB50E058BB55BB00C0F6
:1000280000C050E85BBF54E055BF789400C00CD0C6
:1000380000C02FE131E74FE14A95F1F73A95E1F732
:100048002A95D1F70000F3CF51E055BB58E25A95F5
:10005800F1F750E055BB30E03030F1F35FB7F8947A
:100068000CB51DB54DBD4CBD5FBF9927CC2451E0E3
:10007800073508F002C0103029F007551040889461
:10008800C50EF6CFC8BA0895BFB65F93213021F4E4
:100098004EBD31E020E004C05EB552605EBD21E097
:0600A8005F91BFBE189538
:00000001FF
